{
  "_format": "hh-sol-artifact-1",
  "contractName": "CrowdFunding",
  "sourceName": "contracts/Fandastic.sol",
  "abi": [
    {
      "inputs": [
        {
          "internalType": "uint256",
          "name": "",
          "type": "uint256"
        }
      ],
      "name": "campaigns",
      "outputs": [
        {
          "internalType": "address",
          "name": "owner",
          "type": "address"
        },
        {
          "internalType": "string",
          "name": "title",
          "type": "string"
        },
        {
          "internalType": "string",
          "name": "description",
          "type": "string"
        },
        {
          "internalType": "uint256",
          "name": "target",
          "type": "uint256"
        },
        {
          "internalType": "uint256",
          "name": "deadline",
          "type": "uint256"
        },
        {
          "internalType": "uint256",
          "name": "amountCollected",
          "type": "uint256"
        },
        {
          "internalType": "string",
          "name": "image",
          "type": "string"
        },
        {
          "internalType": "string",
          "name": "milestone",
          "type": "string"
        },
        {
          "internalType": "string",
          "name": "reg",
          "type": "string"
        },
        {
          "internalType": "uint256",
          "name": "miledeadline",
          "type": "uint256"
        }
      ],
      "stateMutability": "view",
      "type": "function"
    },
    {
      "inputs": [
        {
          "internalType": "address",
          "name": "_owner",
          "type": "address"
        },
        {
          "internalType": "string",
          "name": "_title",
          "type": "string"
        },
        {
          "internalType": "string",
          "name": "_description",
          "type": "string"
        },
        {
          "internalType": "uint256",
          "name": "_target",
          "type": "uint256"
        },
        {
          "internalType": "uint256",
          "name": "_deadline",
          "type": "uint256"
        },
        {
          "internalType": "string",
          "name": "_image",
          "type": "string"
        },
        {
          "internalType": "string",
          "name": "_milestone",
          "type": "string"
        },
        {
          "internalType": "string",
          "name": "_reg",
          "type": "string"
        },
        {
          "internalType": "uint256",
          "name": "_miledeadline",
          "type": "uint256"
        }
      ],
      "name": "createCampaign",
      "outputs": [
        {
          "internalType": "uint256",
          "name": "",
          "type": "uint256"
        }
      ],
      "stateMutability": "nonpayable",
      "type": "function"
    },
    {
      "inputs": [
        {
          "internalType": "uint256",
          "name": "_id",
          "type": "uint256"
        }
      ],
      "name": "donateToCampaign",
      "outputs": [],
      "stateMutability": "payable",
      "type": "function"
    },
    {
      "inputs": [],
      "name": "getCampaigns",
      "outputs": [
        {
          "components": [
            {
              "internalType": "address",
              "name": "owner",
              "type": "address"
            },
            {
              "internalType": "string",
              "name": "title",
              "type": "string"
            },
            {
              "internalType": "string",
              "name": "description",
              "type": "string"
            },
            {
              "internalType": "uint256",
              "name": "target",
              "type": "uint256"
            },
            {
              "internalType": "uint256",
              "name": "deadline",
              "type": "uint256"
            },
            {
              "internalType": "uint256",
              "name": "amountCollected",
              "type": "uint256"
            },
            {
              "internalType": "string",
              "name": "image",
              "type": "string"
            },
            {
              "internalType": "string",
              "name": "milestone",
              "type": "string"
            },
            {
              "internalType": "string",
              "name": "reg",
              "type": "string"
            },
            {
              "internalType": "uint256",
              "name": "miledeadline",
              "type": "uint256"
            },
            {
              "internalType": "address[]",
              "name": "donators",
              "type": "address[]"
            },
            {
              "internalType": "uint256[]",
              "name": "donations",
              "type": "uint256[]"
            }
          ],
          "internalType": "struct CrowdFunding.Campaign[]",
          "name": "",
          "type": "tuple[]"
        }
      ],
      "stateMutability": "view",
      "type": "function"
    },
    {
      "inputs": [
        {
          "internalType": "uint256",
          "name": "_id",
          "type": "uint256"
        }
      ],
      "name": "getDonators",
      "outputs": [
        {
          "internalType": "address[]",
          "name": "",
          "type": "address[]"
        },
        {
          "internalType": "uint256[]",
          "name": "",
          "type": "uint256[]"
        }
      ],
      "stateMutability": "view",
      "type": "function"
    },
    {
      "inputs": [],
      "name": "numberOfCampaigns",
      "outputs": [
        {
          "internalType": "uint256",
          "name": "",
          "type": "uint256"
        }
      ],
      "stateMutability": "view",
      "type": "function"
    }
  ],
  "bytecode": "0x6080604052600060015534801561001557600080fd5b506112c8806100256000396000f3fe6080604052600436106100555760003560e01c806307ca140d1461005a5780630fa91fa914610083578063141961bc146100b157806338a5cf72146100e757806342a4fda814610107578063a6b036331461011c575b600080fd5b34801561006657600080fd5b5061007060015481565b6040519081526020015b60405180910390f35b34801561008f57600080fd5b506100a361009e366004610c8c565b61013e565b60405161007a929190610ca5565b3480156100bd57600080fd5b506100d16100cc366004610c8c565b61020d565b60405161007a9a99989796959493929190610d76565b3480156100f357600080fd5b50610070610102366004610ed6565b61050c565b61011a610115366004610c8c565b610641565b005b34801561012857600080fd5b50610131610703565b60405161007a919061104a565b60008181526020818152604091829020600a8101805484518185028101850190955280855260609485949293600b0192909184918301828280156101ab57602002820191906000526020600020905b81546001600160a01b0316815260019091019060200180831161018d575b50505050509150808054806020026020016040519081016040528092919081815260200182805480156101fd57602002820191906000526020600020905b8154815260200190600101908083116101e9575b5050505050905091509150915091565b600060208190529081526040902080546001820180546001600160a01b0390921692916102399061119b565b80601f01602080910402602001604051908101604052809291908181526020018280546102659061119b565b80156102b25780601f10610287576101008083540402835291602001916102b2565b820191906000526020600020905b81548152906001019060200180831161029557829003601f168201915b5050505050908060020180546102c79061119b565b80601f01602080910402602001604051908101604052809291908181526020018280546102f39061119b565b80156103405780601f1061031557610100808354040283529160200191610340565b820191906000526020600020905b81548152906001019060200180831161032357829003601f168201915b5050505050908060030154908060040154908060050154908060060180546103679061119b565b80601f01602080910402602001604051908101604052809291908181526020018280546103939061119b565b80156103e05780601f106103b5576101008083540402835291602001916103e0565b820191906000526020600020905b8154815290600101906020018083116103c357829003601f168201915b5050505050908060070180546103f59061119b565b80601f01602080910402602001604051908101604052809291908181526020018280546104219061119b565b801561046e5780601f106104435761010080835404028352916020019161046e565b820191906000526020600020905b81548152906001019060200180831161045157829003601f168201915b5050505050908060080180546104839061119b565b80601f01602080910402602001604051908101604052809291908181526020018280546104af9061119b565b80156104fc5780601f106104d1576101008083540402835291602001916104fc565b820191906000526020600020905b8154815290600101906020018083116104df57829003601f168201915b505050505090806009015490508a565b6001546000908152602081905260408120600481015442116105495760405162461bcd60e51b8152600401610540906111d0565b60405180910390fd5b4281600901541061056c5760405162461bcd60e51b8152600401610540906111d0565b80546001600160a01b0319166001600160a01b038c16178155895161059a90600183019060208d0190610bf3565b5088516105b090600283019060208c0190610bf3565b5060038101889055600481018790556000600582015585516105db9060068301906020890190610bf3565b5084516105f19060078301906020880190610bf3565b5083516106079060088301906020870190610bf3565b50600981018390556001805490600061061f83611232565b919050555060018054610632919061124d565b9b9a5050505050505050505050565b600081815260208181526040808320600a81018054600180820183559186528486200180546001600160a01b03191633179055600b8201805491820181558552928420349301839055805491519293909290916001600160a01b03169084908381818185875af1925050503d80600081146106d8576040519150601f19603f3d011682016040523d82523d6000602084013e6106dd565b606091505b5050905080156106fd578282600501546106f79190611264565b60058301555b50505050565b6060600060015467ffffffffffffffff81111561072257610722610e33565b6040519080825280602002602001820160405280156107c057816020015b6107ad60405180610180016040528060006001600160a01b0316815260200160608152602001606081526020016000815260200160008152602001600081526020016060815260200160608152602001606081526020016000815260200160608152602001606081525090565b8152602001906001900390816107405790505b50905060005b600154811015610bed57600081815260208181526040918290208251610180810190935280546001600160a01b03168352600181018054919392849290840191906108109061119b565b80601f016020809104026020016040519081016040528092919081815260200182805461083c9061119b565b80156108895780601f1061085e57610100808354040283529160200191610889565b820191906000526020600020905b81548152906001019060200180831161086c57829003601f168201915b505050505081526020016002820180546108a29061119b565b80601f01602080910402602001604051908101604052809291908181526020018280546108ce9061119b565b801561091b5780601f106108f05761010080835404028352916020019161091b565b820191906000526020600020905b8154815290600101906020018083116108fe57829003601f168201915b505050505081526020016003820154815260200160048201548152602001600582015481526020016006820180546109529061119b565b80601f016020809104026020016040519081016040528092919081815260200182805461097e9061119b565b80156109cb5780601f106109a0576101008083540402835291602001916109cb565b820191906000526020600020905b8154815290600101906020018083116109ae57829003601f168201915b505050505081526020016007820180546109e49061119b565b80601f0160208091040260200160405190810160405280929190818152602001828054610a109061119b565b8015610a5d5780601f10610a3257610100808354040283529160200191610a5d565b820191906000526020600020905b815481529060010190602001808311610a4057829003601f168201915b50505050508152602001600882018054610a769061119b565b80601f0160208091040260200160405190810160405280929190818152602001828054610aa29061119b565b8015610aef5780601f10610ac457610100808354040283529160200191610aef565b820191906000526020600020905b815481529060010190602001808311610ad257829003601f168201915b5050505050815260200160098201548152602001600a8201805480602002602001604051908101604052809291908181526020018280548015610b5b57602002820191906000526020600020905b81546001600160a01b03168152600190910190602001808311610b3d575b50505050508152602001600b8201805480602002602001604051908101604052809291908181526020018280548015610bb357602002820191906000526020600020905b815481526020019060010190808311610b9f575b505050505081525050838381518110610bce57610bce61127c565b6020026020010181905250508080610be590611232565b9150506107c6565b50919050565b828054610bff9061119b565b90600052602060002090601f016020900481019282610c215760008555610c67565b82601f10610c3a57805160ff1916838001178555610c67565b82800160010185558215610c67579182015b82811115610c67578251825591602001919060010190610c4c565b50610c73929150610c77565b5090565b5b80821115610c735760008155600101610c78565b600060208284031215610c9e57600080fd5b5035919050565b604080825283519082018190526000906020906060840190828701845b82811015610ce75781516001600160a01b031684529284019290840190600101610cc2565b5050508381038285015284518082528583019183019060005b81811015610d1c57835183529284019291840191600101610d00565b5090979650505050505050565b6000815180845260005b81811015610d4f57602081850181015186830182015201610d33565b81811115610d61576000602083870101525b50601f01601f19169290920160200192915050565b6001600160a01b038b16815261014060208201819052600090610d9b8382018d610d29565b90508281036040840152610daf818c610d29565b90508960608401528860808401528760a084015282810360c0840152610dd58188610d29565b905082810360e0840152610de98187610d29565b9050828103610100840152610dfe8186610d29565b915050826101208301529b9a5050505050505050505050565b80356001600160a01b0381168114610e2e57600080fd5b919050565b634e487b7160e01b600052604160045260246000fd5b600082601f830112610e5a57600080fd5b813567ffffffffffffffff80821115610e7557610e75610e33565b604051601f8301601f19908116603f01168101908282118183101715610e9d57610e9d610e33565b81604052838152866020858801011115610eb657600080fd5b836020870160208301376000602085830101528094505050505092915050565b60008060008060008060008060006101208a8c031215610ef557600080fd5b610efe8a610e17565b985060208a013567ffffffffffffffff80821115610f1b57600080fd5b610f278d838e01610e49565b995060408c0135915080821115610f3d57600080fd5b610f498d838e01610e49565b985060608c0135975060808c0135965060a08c0135915080821115610f6d57600080fd5b610f798d838e01610e49565b955060c08c0135915080821115610f8f57600080fd5b610f9b8d838e01610e49565b945060e08c0135915080821115610fb157600080fd5b50610fbe8c828d01610e49565b9250506101008a013590509295985092959850929598565b600081518084526020808501945080840160005b8381101561100f5781516001600160a01b031687529582019590820190600101610fea565b509495945050505050565b600081518084526020808501945080840160005b8381101561100f5781518752958201959082019060010161102e565b60006020808301818452808551808352604092508286019150828160051b87010184880160005b8381101561118d57888303603f19018552815180516001600160a01b0316845261018088820151818a8701526110a982870182610d29565b91505087820151858203898701526110c18282610d29565b606084810151908801526080808501519088015260a0808501519088015260c080850151888303828a015291935091506110fb8382610d29565b9250505060e080830151868303828801526111168382610d29565b9250505061010080830151868303828801526111328382610d29565b92505050610120808301518187015250610140808301518683038288015261115a8382610fd6565b925050506101608083015192508582038187015250611179818361101a565b968901969450505090860190600101611071565b509098975050505050505050565b600181811c908216806111af57607f821691505b60208210811415610bed57634e487b7160e01b600052602260045260246000fd5b6020808252602c908201527f54686520646561646c696e652073686f756c642062652061206461746520696e60408201526b103a343290333aba3ab9329760a11b606082015260800190565b634e487b7160e01b600052601160045260246000fd5b60006000198214156112465761124661121c565b5060010190565b60008282101561125f5761125f61121c565b500390565b600082198211156112775761127761121c565b500190565b634e487b7160e01b600052603260045260246000fdfea26469706673582212204f660611b33f541701816611eead4d911ca9f00edcd4ea1718e1fd3f6591927f64736f6c63430008090033",
  "linkReferences": {},
  "deployedLinkReferences": {}
}